:1003B60002190000022100000123000A0E000000BD
:1003C60000000000000000021B0000021D000002E9
:0B03D6001F000002080000020A0000E7
:1000030053890F438920758DFA758BFA759870C2E1
:10001300ABD28E1203728F230523E523C313F5237B
:10002300F5A0052AE52A70020529E5226401452188
:100033007004F521F522120213E52A643C45297068
:1000430028F529F52A0525E525B4101DE4F5250530
:1000530027E5232404FFE433FEC3E5279FEE6480F2
:10006300F87480984003E4F5277F0112046BE527B9
:10007300FD7C008C1BF51CE51CAE1B7805C333CE41
:1000830033CED8F9F51C8E1B8C1D8D1EE51E25E085
:10009300F51EE51D33F51D051EE51E7002051DC485
:1000A300F8540FC868F51EE51DC454F048F51D75D6
:1000B3000C0085230DE50DAE0C7805C333CE33CE8E
:1000C300D8F9F50D8E0C2480F50DE4350CF50CE410
:1000D300F52BF52C852B1F852C20E520AE1F7805ED
:1000E300C333CE33CED8F9F5208E1F251CFFE51B75
:1000F300351FFEAD287C00EF2DF509EC3EF508E534
:100103001E2520CFE51D351FCF2DF50BEC3FF50A3E
:10011300C3E5099480E5089400400AE509950DE5D7
:1001230008950C400BE52C252C240EF8E4F68016DC
:10013300E5092480FFE5083421FE12040AE52C2595
:100143002C240EF8A607C3E50B9480E50A9400401F
:100153000AE50B950DE50A950C400BE52C252C249F
:100163000FF8E4F68016E50B2480FFE50A3421FE40
:1001730012040AE52C252C240FF8A607052CE52CE0
:100183007002052BC39405E52B940050030200D79E
:10019300E525C394085008E4F524852518800975DE
:1001A3002401E52524F8F518C285E4F52BF52CE5A3
:1001B30024252CFF240FF8E6FEC374089518FDEEE2
:1001C300A805088002C333D8FCFE740E2FF8E6FF9F
:1001D300AD18A805088002C313D8FC4EF52DFF12F5
:1001E300044B052CE52C7002052BC39408E52B94D6
:1001F3000040BCD287C3740F9528F580D285C2878F
:100203000528E52864106003020025F5280200256F
:10032C00752E20752F00AF2FAE2E12040AEFF4603D
:10033C0011052FE52F7002052ED394FFE52E942185
:10034C0040E4D3E52F94FFE52E9421400F7F007EEF
:10035C0020120437AD997F007E208006AD99AF2F17
:05036C00AE2E12042179
:010371002269
:10044B007E08EF13B39284C286D286EFC313FFDE0E
:01045B00F1AF
:01045C00227D
:10037200752F20753000AF30AE2F12040AEFF460F3
:10038200110530E5307002052FD394FFE52F94213B
:1003920040E4D3E5309400E52F94204011E5302469
:1003A200FFFFE52F34FFFE12040A8F2E8003E4F5CF
:0303B2002EAF2E3D
:0103B5002225
:10021300309879E52245217073751922F51A120376
:100223002C859923752100852322E52330E005756C
:1002330026018003E4F526E522C4F8540FC868F5C7
:1002430022E521C454F048F5217F007E22120437B1
:100253007F007E241204377F007E26120437052395
:10026300E523C313F523E52245216020C298E52247
:100273001522700215213098FDAD99AF1AAE1912EF
:100283000421051AE51A70DE051980DAE526600AED
:0D029300AF1AAE191203E2E4F526C298225C
:0403E200AD07AC06B1
:1003E6007B1075E78175E502EB60161B8DE48CE3E7
:1003F600E4F5E275E64675E6B9000DBD00010C8030
:04040600E702045DA8
:07046B00EF60031F80FA227D
:0E045D00E4F5E7F5E5F5E675E4FF75E3FF224B
:10040A008FE48EE375E78175E50175E64675E6B911
:06041A0000AFE212045DD8
:0104200022B9
:100421008FE48EE375E78175E5028DE275E6467529
:06043100E6B90002045DC3
:100437008FE48EE375E78175E50375E64675E6B9E2
:040447000002045D4E
:030000000202A059
:0C02A000787FE4F6D8FD7581300202E79B
:1002AC00020003E493A3F8E493A34003F68001F265
:1002BC0008DFF48029E493A3F85407240CC8C33353
:1002CC00C4540F4420C8834004F456800146F6DF22
:1002DC00E4800B01020408102040809003B6E47EF9
:1002EC00019360BCA3FF543F30E509541FFEE49317
:1002FC00A360010ECF54C025E060A840B8E493A3DE
:10030C00FAE493A3F8E493A3C8C582C8CAC583CA08
:10031C00F0A3C8C582C8CAC583CADFE9DEE780BEC0
:0103E100001B
:00000001FF
