:0231890013A988
:02318B00176FBC
:023191001D37E8
:023193002BC04F
:023195002CDD2F
:10315C00EF1FAC0670011E4C600500000080F122D0
:10307300EF1FAC0670011E4C600D0000007D0B7C41
:07308300BEDCFEDDFC80E96C
:01308A002223
:102FAC000000000000000000000000000000000015
:0F2FBC00000000000000000000000000000022E4
:102E0D0000000000000000000000000000000000B5
:102E1D0000000000000000000000000000000000A5
:102E2D000000000000000000000000000000000095
:0D2E3D000000000000000000000000002266
:10222D0000070E091C1B1215383F363124232A2DA9
:10223D0070777E796C6B6265484F464154535A5D99
:10224D00E0E7EEE9FCFBF2F5D8DFD6D1C4C3CACD89
:10225D0090979E998C8B8285A8AFA6A1B4B3BABD79
:10226D00C7C0C9CEDBDCD5D2FFF8F1F6E3E4EDEA69
:10227D00B7B0B9BEABACA5A28F88818693949D9A59
:10228D002720292E3B3C35321F18111603040D0A49
:10229D005750595E4B4C45426F68616673747D7A39
:1022AD00898E878095929B9CB1B6BFB8ADAAA3A429
:1022BD00F9FEF7F0E5E2EBECC1C6CFC8DDDAD3D419
:1022CD00696E676075727B7C51565F584D4A434409
:1022DD00191E171005020B0C21262F283D3A3334F9
:1022ED004E49404752555C5B7671787F6A6D6463E9
:1022FD003E39303722252C2B0601080F1A1D1413D9
:10230D00AEA9A0A7B2B5BCBB9691989F8A8D8483C8
:10231D00DED9D0D7C2C5CCCBE6E1E8EFFAFDF4F3B8
:0331BD00022F647A
:102F6400439540439640000000000000D2A60000B4
:102F740000000000C2A67F047E00123073D2A600B7
:062F840000000000002225
:10300700439580439680000000000000D2A7D2A617
:0D301700122FACC2A7122FACC2A6022FAC24
:10308B00439580439680C2A7C2A6122FACD2A7123B
:07309B002FACD2A6022E0D9E
:102FCB00439580439680000000000000C2A70000DC
:0E2FDB0000000000D2A6122FACC2A6022FAC3E
:102FE900439580439680000000000000D2A70000AE
:0E2FF90000000000D2A6122FACC2A6022FAC20
:05292A00900066EFF0D3
:10292F00E4A3F0439580439680000000000000F080
:10293F00900066E0FF30E704D2A78002C2A7EF2520
:10294F00E0900066F0000000000000D2A6122FAC4D
:10295F00C2A6122FAC900067E004F0E0C3940840C9
:10296F00CF43958053967F000000000000D2A60051
:10297F00000000000000000000000030A71300005E
:10298F0000000000000000000000C2A6122FACC320
:10299F0022000000000000000000000000C2A6128C
:0329AF002FACD377
:0129B2002202
:102C320090005A7408F0E4A3F043958053967F0005
:102C4200000000000090005AE0FF14F0EF6031A392
:102C5200E0FF25E0F0D2A600000000000000000026
:102C620000000030A706E04401F0800790005BE01E
:102C720054FEF0000000000000C2A6122FAC80C576
:052C820090005BE0FF83
:012C8700222A
:1027DF00E4900052F0900058F0A3F0EF25E0900045
:1027EF0053F0A3EDF0900053E004900055F0123039
:1027FF0007900053E0FF12292A40028055900054A1
:10280F00E0FF12292A40028049123007900055E05C
:10281F00FF12292A4002803A122C32900056EFF014
:10282F00122FCB122C32900057EFF0122FCB122C0D
:10283F0032900052EFF07B017A0079537D057C00D6
:10284F00122EE6900052E0B50705122FCB800A1228
:10285F002FE912308BE4FEFF2212308B900057E0ED
:10286F00FFA3E4F0A3EFF0E0F8E4F0E8900058F0F5
:10287F00900056E0FF900059E02FF0900058E034A0
:07288F0000F0E0FEA3E0FFF2
:01289600221F
:082EE600900066ECF0A3EDF092
:102EEE00E4FF90006674FFF5F0120E2845F06014B2
:102EFE00120DAE6FFE740129F9E43AFAEE90222D0E
:042F0E0093FF80DECF
:012F1200229C
:10311000AD07AC06EC120AA27B0A7AD779A3783CF9
:0431200012091E2250
:102DC600AD07AC06EC120AA27B0A7AD779A3783C47
:102DD60012091E900070120E4C900070E0FCA3E0E9
:102DE600FDA3E0FEA3E0FF7B337A93798878431254
:102DF6000829900070120E4C900070E0FCA3E0FDD4
:062E0600A3E0FEA3E0FFC3
:012E0C0022A3
:102C880090006A120E4C90006AE0FCA3E0FDA3E0FD
:102C9800FEA3E0FF7B337A937988784312082D905E
:102CA800006A120E4C90006AE0FCA3E0FDA3E0FE6F
:102CB800A3E0FFE4FBFA7948784212091E90006A03
:102CC800120E4C90006AE0FCA3E0FDA3E0FEA3E036
:052CD800FF120ADB22DF
:102B4B00EF25E0900062F0A3EDF0900060E09000C4
:102B5B0064F0A3EBF07B017A0079627D047C0012B8
:102B6B002EE6900061EFF0123007900062E0FF124A
:102B7B00292A400312308B900063E0FF12292A4070
:102B8B000312308B900064E0FF12292A40031230AD
:102B9B008B900065E0FF12292A400312308B9000C6
:102BAB0061E0FF12292A400312308B12308B7F0A0F
:052BBB007E00023073F2
:102F130090005BEBF0900059EFF0A3EDF0E490002C
:102F230060F0FB122B4B900059E0FFA3E0FDA3E000
:0A2F3300FBA3E0900060F0022B4BBE
:102E4A00EF25E0900059F0A374FFF0A374F3F01299
:102E5A003007900059E0FF12292A400280137FFFB1
:102E6A0012292A4002800A90005BE0FF12292A40B8
:0A2E7A000512308BC32212308BD3F7
:012E8400222B
:10289700900059120E4C90005DEBF0A3EAF0A3E90B
:0128A700F040
:1028A800E4FF7EFF7D7F7C47900059E0F8A3E0F9C4
:1028B800A3E0FAA3E0FB12091EE4FBFAF9783F1241
:1028C800082D120ADBE4FDEF540FFC74632DF5822A
:1028D800E43400F583ECF0EF7804CEA2E713CE13CE
:1028E800D8F8FF0DEDB404DF900064E0C454F0FFA5
:1028F800900063E02FFF900060E0FBA3E0FAA3E004
:10290800F9EF120E16900066E0C454F0FF900065CF
:10291800E02FFF90005DE0FBA3E0FAA3E0F9EF02EF
:022928000E1689
:052D3100900052EFF0DC
:102D3600C2AFA3E0FCA3E0FDA3E0FEA3E0FF90008A
:102D4600607401F0A37400F0A37457F07B017A005D
:102D56007958122897900052E0FF900058E0FB90B7
:102D66000057E090005CF07D24122F13900052E093
:062D7600FF122E4AD2AF4D
:012D7C002234
:103124004391015392FE4391025392FD4391045300
:0331340092FB22E9
:102D7D0090004174FFF0E5905407640760357D01C4
:102D8D007F02121CD8E590540764076026E5905425
:102D9D0007900041F0E4A3F0E59054076407601339
:102DAD007D017F02121CD8900042E004F0E0C39434
:082DBD003240E5900041E0FF07
:012DC50022EB
:10000E000000000000000000002F000000000700AC
:10001E00070000147F147F1400242A7F2A12006226
:10002E0064081323003649552250000005030000D2
:10003E0000001C224100000041221C000014083E5A
:10004E0008140008083E0808000000A06000000820
:10005E000808080800006060000000201008040274
:10006E00003E5149453E0000427F40000042615132
:10007E004946002141454B31001814127F100027CC
:10008E0045454539003C4A4949300001710905038F
:10009E0000364949493600064949291E00003636C0
:1000AE000000000056360000000814224100001423
:1000BE001414141400004122140800020151090600
:1000CE0000324959513E007C1211127C007F494981
:1000DE004936003E41414122007F4141221C007FB2
:1000EE0049494941007F09090901003E4149497AC0
:1000FE00007F0808087F0000417F4100002040413A
:10010E003F01007F08142241007F40404040007FA5
:10011E00020C027F007F0408107F003E4141413EE9
:10012E00007F09090906003E4151215E007F091931
:10013E0029460046494949310001017F0101003F2E
:10014E004040403F001F2040201F003F4038403FAE
:10015E000063140814630007087008070061514912
:10016E00454300007F41410000552A552A550000A5
:10017E0041417F0000040201020400404040404023
:10018E00000001020400002054545478007F4844BB
:10019E00443800384444442000384444487F0038F2
:1001AE005454541800087E0901020018A4A4A47C1B
:1001BE00007F080404780000447D400000408084E5
:1001CE007D00007F102844000000417F4000007C2D
:1001DE0004180478007C0804047800384444443839
:1001EE0000FC242424180018242418FC007C080485
:1001FE00040800485454542000043F444020003C5E
:10020E004040207C001C2040201C003C4030403CE4
:10021E00004428102844001CA0A0A07C0044645474
:10022E004C441414141414140000000000000000B8
:10023E000000000000000000000000F800000000B8
:10024E00000000333000000000100C06100C0600F9
:10025E00000000000000000040C07840C078400060
:10026E00043F04043F040400007088FC08300000C2
:10027E00001820FF211E0000F008F000E01800001A
:10028E0000211C031E211E0000F0088870000000D3
:10029E001E2123241927211010160E000000000025
:1002AE000000000000000000000000E01804020042
:1002BE00000000071820400000020418E0000000B3
:1002CE000040201807000000404080F080404000B1
:1002DE000202010F01020200000000F00000000007
:1002EE000101011F010101000000000000000000DB
:1002FE0080B0700000000000000000000000000050
:10030E0000010101010101010000000000000000D8
:10031E000030300000000000000000008060180473
:10032E00006018060100000000E010080810E00050
:10033E00000F102020100F00001010F80000000019
:10034E000020203F20200000007008080888700060
:10035E0000302824222130000030088888483000E0
:10036E000018202020110E000000C02010F8000000
:10037E0000070424243F240000F808888808080099
:10038E000019212020110E0000E0108888180000AE
:10039E00000F112020110E0000380808C838080080
:1003AE000000003F00000000007088080888700000
:1003BE00001C222121221C0000E010080810E00081
:1003CE000000312222110F00000000C0C00000000A
:1003DE00000000303000000000000080000000002F
:1003EE000000806000000000000080402010080027
:1003FE0000010204081020004040404040404000F0
:10040E0004040404040404000008102040800000CA
:10041E000020100804020100007048080808F000CF
:10042E000000003036010000C030C828E810E0009F
:10043E000718272423140B000000C038E00000002A
:10044E00203C23020227382008F888888870000094
:10045E00203F202020110E00C03008080808380068
:10046E00071820202010080008F808080810E000DF
:10047E00203F202020100F0008F88888E808100080
:10048E00203F20202320180008F88888E808100054
:10049E00203F200003000000C0300808083800008C
:1004AE0007182020221E020008F808000008F8088D
:1004BE00203F210101213F20000808F80808000014
:1004CE000020203F2020000000000808F808080047
:1004DE00C08080807F00000008F888C028180800BF
:1004EE00203F20012638200008F8080000000000F8
:1004FE00203F20202020300008F8F800F8F80800EF
:10050E00203F003F003F200008F830C00008F808E8
:10051E00203F200007183F00E01008080810E000F8
:10052E000F10202020100F0008F808080808F0000F
:10053E00203F210101010000E01008080810E00032
:10054E000F18242438504F0008F8888888887000C7
:10055E00203F2000030C3020007088080808380067
:10056E000038202121221C00180808F8080818005D
:10057E000000203F2000000008F808000008F808DE
:10058E00001F202020201F000878880000C838088F
:10059E00000007380E010000F80800F80008F80007
:1005AE00033C0700073C03000818688080681808A1
:1005BE0020302C03032C30200838C800C83808001F
:1005CE000000203F2000000010080808C83808006E
:1005DE002038262120201800000000FE0202020012
:1005EE000000007F40404000000C30C000000000C2
:1005FE00000000010638C00000020202FE000000EA
:10060E00004040407F000000000000000E0A0E0077
:10061E0000000000000000000000000000000000CC
:10062E0080808080808080800002020400000000B4
:10063E0000000000000000000000808080800000AC
:10064E000019242222223F2008F80080800000009A
:10065E00003F112020110E0000000080808000005D
:10066E00000E112020201100000000808088F8006C
:10067E00000E112020103F2000008080808000009E
:10068E00001F222222221300008080F08888881802
:10069E000020203F2020000000008080808080000D
:1006AE00006B94949493600008F8008080800000A2
:1006BE00203F210000203F2000809898000000007D
:1006CE000020203F202000000000008098980000AD
:1006DE0000C08080807F000008F8000080808000CD
:1006EE00203F24022D302000000808F800000000F2
:1006FE000020203F202000008080808080808000AD
:10070E00203F20003F20003F80800080808000003E
:10071E00203F210000203F200000808080800000CC
:10072E00001F202020201F008080008080000000FD
:10073E0080FFA12020110E0000000080808080002C
:10074E00000E112020A0FF8080808000808080001D
:10075E0020203F212000010000008080808080004A
:10076E000033242424241900008080E080800000BF
:10077E000000001F2020000080800000008080000C
:10078E00001F202020103F2080808000008080806D
:10079E0000010E30080601008080008000808080FD
:1007AE000F300C030C300F00008080008080800022
:1007BE000020312E0E31200080808000008080804D
:1007CE0080818E70180601000080808080808000FD
:1007DE000021302C2221300000000000807C02021B
:1007EE0000000000003F404000000000FF0000003D
:1007FE0000000000FF0000000002027C80000000EC
:10080E000040403F00000000000601010202040407
:08081E000000000000000000D2
:101F63002A2A2A2A2A2A2A2A53544152542A2A2A12
:101F73002A2A2A2A2A002D2D3E474F2020202020BE
:101F83002020202020202020202020002D2D3E5303
:101F9300455454494E472020202020202020202033
:101FA30020002A2A2A2A2A2A2A2A2A474F2A2A2A80
:101FB3002A2A2A2A2A2A2A002D3E426F647920548B
:101FC300656D7065726174757265202020002D3E09
:101FD3004E6F726D616C2054656D706572617475BE
:101FE300726520002D3E486973746F72792020203A
:101FF300202020202020202020002A2A2A2A2A2AC2
:102003002A53455454494E472A2A2A2A2A2A2A005F
:102013002D3E4C6F776572204C696D6974202020CA
:102023002020202020002D3E5570706572204C69C1
:102033006D69742020202020202020002D3E456D36
:102043006973736976697479202020202020202009
:102053002000546F626A3A2020202054616D623A56
:1020630020202020202000003E3E5368656C6C2019
:1020730054656D70657261747572653C3C003E3EDB
:102083003E3E3E3E47656E6572616C6C793C3C3CFE
:102093003C3C3C002D2D2D2D2D2D2D486973746F47
:1020A30072792D2D2D2D2D2D2D002D2D4368616E33
:1020B300676520456D69737369766974792D2D00A1
:1020C3002D2D4368616E67654C6F7765724C696D42
:1020D30069742D2D2D002D2D4368616E6765557034
:0C20E3007065724C696D69742D2D2D0024
:10270E00E490009BF09000ACF09000ABF090009A3B
:10271E0004F09000A9F09000A8F090009DF09000B9
:10272E00A5F090009CF09000A4F090008374FFF050
:10273E00A3741FF0A37463F0A374FFF0A3741FF0CF
:10274E00A37479F0A374FFF0A3741FF0A3748FF039
:10275E0090008D74FFF0A3741FF0A374A5F0A37402
:10276E00FFF0A3741FF0A374BBF0A374FFF0A37467
:10277E001FF0A374D1F0A374FFF0A3741FF0A37421
:10278E00E7F09000AD74FFF0A3741FF0A374FDF09A
:10279E00A374FFF0A37420F0A37413F0A374FFF0DE
:1027AE00A37420F0A37429F0A374FFF0A37420F097
:1027BE00A3743FF09000A174FFF0A37420F0A374F3
:1027CE006BF090009E74FFF0A37420F0A37481F060
:0127DE0022D8
:0E2AC400900011EBF0A3EAF0A3E9F0A3EDF00F
:102AD200E4900016F0900014E0FF900016E0FEC3B0
:102AE2009F5065900015E0FFEE900011B50727E0BA
:102AF200FBA3E0FAA3E0F9900016E0FF75F003A44F
:102B0200F58285F083120EA9EF04FF90001C741564
:102B1200F0A374018024E0FBA3E0FAA3E0F99000A3
:102B220016E0FF75F003A4F58285F083120EA9EF7B
:102B320004FF90001C7415F0E4A3F07D02122A3CFD
:082B4200900016E004F0808D04
:012B4A002268
:10313700120DAED39400400574FF020DF474011212
:033147000E16223F
:10314A00120DAEC3940150057401020DF4E4120E7F
:02315A0016223B
:0E317B00E4F5C7F5C5F5C675C4FF75C3FF22A0
:10305A008FC4EEFF8FC375C78375C50175C65A75D0
:08306A00C6A500AFC212317BC4
:01307200223B
:103040008FC4EEFF8FC375C78375C502AF058FC2EE
:0A30500075C65A75C6A50002317B53
:1030D0008FC4EEFF8FC375C78375C50375C65A7558
:0630E000C6A50002317BD1
:1029B3004395104396104395204396207F647E00F1
:1029C3001230737FAE122EC47F40122EC47FB0121A
:1029D3002EC47FC8122EC47F81122EC47FFF122EF5
:1029E300C47FA1122EC47FA6122EC47FA8122EC4A8
:1029F3007F1F122EC47FD3122EC4E4FF122EC47F76
:102A0300D5122EC47FF0122EC47FD9122EC47F227A
:102A1300122EC47FDA122EC47F02122EC47FDB1261
:102A23002EC47F49122EC47F8D122EC47F14122E02
:092A3300C47FAF122EC40230A2D0
:0931AD00D2A5D2A4C2A5C2A4223D
:0731B600C2A5D2A4D2A5229C
:072E8500AD071231AD7F78AB
:102E8C00C2A4E4FEEF30E704D2A58002C2A5EF2570
:102E9C00E0FFD2A4C2A40EEEB408E9D2A400003024
:092EAC00A504C2A4C322C2A4D3F0
:012EB50022FA
:0E2EB600EC24B0FF122EC4E4FF122EC47F10D5
:102EC400122E8540037F0122E4FF122E8C40037FE3
:102ED4000222AF05122E8C40037F04221231B67FEA
:022EE4000022CA
:102F8A00122E8540037F01227F40122E8C40037F40
:102F9A000222AF05122E8C40037F08221231B67F1F
:022FAA00002203
:1030A200E4FC122EB6E4FBE4FF122F8A0BEBB48091
:0630B200F60CECB408EC82
:0130B80022F5
:1030B900E4FC122EB6E4FB7F01122F8A0BEBB480DD
:0630C900F60CECB408EC6B
:0130CF0022DE
:10302400AC051F1CEF24B0FF122EC4ECC4540F4493
:0C30340010FF122EC4EC540FFF022EC43B
:0F316C007F8D122EC47F14122EC47FAF022EC48B
:0A31A3007F8D122EBF7FAE022EC4F6
:08000300123024AF03022F8A22
:0B2A3C00900019EBF0A3EAF0A3E9F012
:102A4700123024E4FC90001CE0FFECC39F506D9013
:102A57000019E0FBA3E0FAA3E0F98C82758300126A
:102A67000DC7FFC394204051EFD3947B504BEF2405
:102A7700E0FBE4FA90001DE075F006601BEBA42470
:102A87000EF582E5F03400F583E5822AF582E43518
:102A970083F583E493F48018EBA4240EF582E5F024
:102AA7003400F583E5822AF582E43583F583E493E0
:0C2AB700FF122F8A0AEAB406BB0C8089CB
:012AC30022F0
:10262D00900011EFF0A3EDF0A3EBF0A3EAF0A3E916
:01263D00F0AC
:10263E00E4900018F0900016E0FF900018E0FEC342
:10264E009F400302270D900013E0FBA3E0FAA3E0E6
:10265E00F98E82758300120DC7FFC39420500302BA
:10266E002704EFD3947E4003022704EF24E0F9E41D
:10267E00FB900011E02BFFA3E0FD123024E4FC9050
:10268E000017E0602FEB75F008A4FFEC7583002FA8
:10269E00FFE58335F0FE75F010E9A42436F582E5EA
:1026AE00F03402F583E5822FF582E5833EF583E46F
:1026BE0093F4802CEB75F008A4FFEC7583002FFFCC
:1026CE00E58335F0FE75F010E9A42436F582E5F0C9
:1026DE003402F583E5822FF582E5833EF583E4939C
:1026EE00FF122F8A0CECB408960BEB6402708290EA
:0F26FE000012E02408F0900018E004F0022643D8
:01270D0022A9
:1030E600AB05E4FD123024AF031BEF6007E4FF12CB
:0530F6002F8A80F32287
:1020EF005B25665E435D0025302E32665E4300251C
:1020FF00642D2D2825302E32665E4329002D2D2D7F
:10210F002D282025645E4320292D2D2D002D2D2DCA
:10211F002D282025302E316620292D2D2D0000074A
:10212F000E091C1B1215383F363124232A2D7077C8
:10213F007E796C6B6265484F464154535A5DE0E7B8
:10214F00EEE9FCFBF2F5D8DFD6D1C4C3CACD909728
:10215F009E998C8B8285A8AFA6A1B4B3BABDC7C018
:10216F00C9CEDBDCD5D2FFF8F1F6E3E4EDEAB7B088
:10217F00B9BEABACA5A28F88818693949D9A272078
:10218F00292E3B3C35321F18111603040D0A5750E8
:10219F00595E4B4C45426F68616673747D7A898EC8
:1021AF00878095929B9CB1B6BFB8ADAAA3A4F9FE48
:1021BF00F7F0E5E2EBECC1C6CFC8DDDAD3D4696E38
:1021CF00676075727B7C51565F584D4A4344191EA8
:1021DF00171005020B0C21262F283D3A33344E4998
:1021EF00404752555C5B7671787F6A6D64633E3908
:1021FF00303722252C2B0601080F1A1D1413AEA9F8
:10220F00A0A7B2B5BCBB9691989F8A8D8483DED967
:0E221F00D0D7C2C5CCCBE6E1E8EFFAFDF4F370
:1013A9001231241229B31230A21231BD12270E7F35
:1013B90001121C287F04121C287F05121C287F0695
:1013C900121C287F07121C2890009AE0B4011D7B8B
:1013D900017A00798390009BE0900015F07D03125B
:1013E9002AC47D807F041230E602176790009AE0D4
:1013F900B4020B7B017A00798D9000AC80109000CB
:101409009AE0B403167B017A0079AD9000ABE090C5
:101419000015F07D04122AC402176790009AE0644F
:101429000470717B017A0079A19000A9E090001500
:10143900F07D01122AC47D807F021230E67D807F13
:10144900031230E67D807F041230E690001474FFA9
:10145900F0A37420F0A374EFF090007DE0FCA3E00A
:10146900FDA3E0FEA3E0FF900017120E4C7B017A6A
:10147900007900120F8B7B017A0079001230FB9002
:101489000016EFF07B017A007900E4A3F07D027F7A
:101499000202176490009AE0640560030215777BE5
:1014A900017A0079A19000A8E0900015F07D011261
:1014B9002AC47D807F021230E67D807F031230E6E8
:1014C9007D807F041230E67BFF7A20795590001CDD
:1014D9007415F0E4A3F07D017F02122A3C900014F8
:1014E90074FFF0A37420F0A374F6F090007DE0FC83
:1014F900A3E0FDA3E0FEA3E0FF900017120E4C7BD2
:10150900017A007900120F8B7B017A007900123081
:10151900FB900016EFF07B017A007900E4A3F0FD5F
:101529007F0312262D90001474FFF0A37420F0A3FA
:1015390074F6F0900074E0FCA3E0FDA3E0FEA3E0E4
:10154900FF900017120E4C7B017A007900120F8B65
:101559007B017A0079001230FB900016EFF07B01D5
:101569007A007900E4A3F07D3C7F030217649000C0
:101579009AE0640660030216057BFF7A207997904A
:10158900001C7415F0E4A3F07D027F01122A3C7D52
:10159900807F021230E67D807F031230E67D807FF6
:1015A900041230E690001474FFF0A37420F0A374C1
:1015B900FEF09000A6E0FFA3E0900017CFF0A3EFA4
:1015C900F090007DE0FCA3E0FDA3E0FEA3E0FF9026
:1015D9000019120E4C7B017A007900120F8B7B01E6
:1015E9007A0079001230FB900016EFF07B017A0047
:1015F9007900E4A3F07D027F0302176490009AE06A
:10160900640770687BFF7A2079C390001C7415F019
:10161900E4A3F07D027F01122A3C7D807F02123013
:10162900E67D807F031230E67D807F041230E690EC
:10163900001474FFF0A37421F0A3740CF090008CD3
:10164900E0900017F07B017A007900120F8B7B0183
:101659007A0079001230FB900016EFF07B017A00D6
:101669007900E4A3F07D027F0302176490009AE0F9
:10167900640870687BFF7A2079D990001C7415F092
:10168900E4A3F07D027F01122A3C7D807F021230A3
:10169900E67D807F031230E67D807F041230E6907C
:1016A900001474FFF0A37421F0A3740CF090009956
:1016B900E0900017F07B017A007900120F8B7B0113
:1016C9007A0079001230FB900016EFF07B017A0066
:1016D9007900E4A3F07D027F0302176490009AE089
:1016E9006409707A7BFF7A2079AD90001C7415F03B
:1016F900E4A3F07D027F01122A3C7D807F02123033
:10170900E67D807F031230E67D807F041230E6900B
:10171900001474FFF0A37421F0A3741CF09000AAC4
:10172900E0FCE4120AA77BCD7ACC79CC783D12098A
:101739001E900017120E4C7B017A007900120F8B54
:101749007B017A0079001230FB900016EFF07B01E3
:101759007A007900E4A3F07D027F0312262D7F0130
:06176900121CD80213D18E
:10232D0000070E091C1B1215383F363124232A2DA8
:10233D0070777E796C6B6265484F464154535A5D98
:10234D00E0E7EEE9FCFBF2F5D8DFD6D1C4C3CACD88
:10235D0090979E998C8B8285A8AFA6A1B4B3BABD78
:10236D00C7C0C9CEDBDCD5D2FFF8F1F6E3E4EDEA68
:10237D00B7B0B9BEABACA5A28F88818693949D9A58
:10238D002720292E3B3C35321F18111603040D0A48
:10239D005750595E4B4C45426F68616673747D7A38
:1023AD00898E878095929B9CB1B6BFB8ADAAA3A428
:1023BD00F9FEF7F0E5E2EBECC1C6CFC8DDDAD3D418
:1023CD00696E676075727B7C51565F584D4A434408
:1023DD00191E171005020B0C21262F283D3A3334F8
:1023ED004E49404752555C5B7671787F6A6D6463E8
:1023FD003E39303722252C2B0601080F1A1D1413D8
:10240D00AEA9A0A7B2B5BCBB9691989F8A8D8483C7
:10241D00DED9D0D7C2C5CCCBE6E1E8EFFAFDF4F3B7
:10176F00122D7DEFF47003021AB090009AE0FEC4C0
:10177F0054F04FFF120ED9180A1317F31517DB1673
:10178F00184423182E2518172618E33318CC3518AC
:10179F00B436196343195245193A46199153198EA4
:1017AF00551976561A316319EF6519A4661A4F73D6
:1017BF001A45751A3B761A71831A67851A5D861A50
:1017CF00A0931A90951A809600001AB090009BE093
:1017DF00D394014006E014F00218C890009B7402E5
:1017EF00F00218C890009BE0C394025005E004F08B
:1017FF00800690009B7401F00218C890009BE0FFD8
:10180F0090009AE02F0218ED9000ACE0D3940040C6
:10181F0005E014F080069000AC7403F00218C89035
:10182F0000ACE0C394035005E004F08005E49000A1
:10183F00ACF00218C89000ACE0700790009A040258
:10184F0018ED9000ACE0B40127E4FFFE1230D07F1A
:10185F00007E021230D0E490007AF0A3F090008165
:10186F00F0A3F090009A7404F0E490007C021A58F0
:10187F009000ACE0B4020E90009A7405F090007CDA
:10188F007401021A589000ACE064036003021AB0AE
:10189F00900078F0A3F09000A6F0A3F090009A7457
:1018AF0006F0021A389000ABE0D394004005E01424
:1018BF00F080069000AB7403F0E4021A389000AB8E
:1018CF00E0C394035005E004F08005E49000ABF012
:1018DF00E4021A389000ABE0700990009A04F0E42B
:1018EF00021A389000ABE0B4011090009A7407F020
:1018FF0090008C74D8F0E4021A389000ABE0B40278
:10190F0010900099747DF090009A7408F0E4021A18
:10191F00389000ABE064036003021AB09000AA7421
:10192F000AF090009A14F0E4021A389000A9E0D35C
:10193F0094004005E014F080069000A97401F0E4D3
:10194F00021A38900082E004F07034900081E004B5
:10195F00F0021A599000A9E06003021AB090009AA1
:10196F007402F0E4021A389000A8E0D39400400506
:10197F00E014F080069000A87401F0E4021A380217
:10198F001A599000A8E06003021AB090009A7402EE
:10199F00F0E4021A38C3900078E064809484400326
:1019AF00021AB0900082E09400900081E06480946D
:1019BF00805003021AB0A3E024FFF0900081E034BE
:1019CF00FFF0900079E02402F0900078E03400F00E
:1019DF009000A7E004F070469000A6E004F0803E6F
:1019EF00D3900079E09400900078E0648094805068
:1019FF0003021AB0900082E004F07006900081E0BC
:101A0F0004F0900079E024FEF0900078E034FFF0CD
:101A1F009000A7E024FFF09000A6E034FFF07F06CF
:101A2F00807C90009A7402F0E4FF807290008CE04A
:101A3F0004F0E4FF806890008CE014F0E4FF805E17
:101A4F0090007C7403F090009AF07F048050900017
:101A5F0099E004F0E4FF8046900099E014F0E4FF71
:101A6F00803C90007C7404F090009A14F07F048006
:101A7F002D9000AAE0C3940A5003E004F0E4FF8025
:101A8F001D9000AAE0D394004003E014F0E4FF801F
:101A9F000D90007C7402F090009A04F07F04121CE9
:071AAF00B1121B3102176F99
:10242D0000070E091C1B1215383F363124232A2DA7
:10243D0070777E796C6B6265484F464154535A5D97
:10244D00E0E7EEE9FCFBF2F5D8DFD6D1C4C3CACD87
:10245D0090979E998C8B8285A8AFA6A1B4B3BABD77
:10246D00C7C0C9CEDBDCD5D2FFF8F1F6E3E4EDEA67
:10247D00B7B0B9BEABACA5A28F88818693949D9A57
:10248D002720292E3B3C35321F18111603040D0A47
:10249D005750595E4B4C45426F68616673747D7A37
:1024AD00898E878095929B9CB1B6BFB8ADAAA3A427
:1024BD00F9FEF7F0E5E2EBECC1C6CFC8DDDAD3D417
:1024CD00696E676075727B7C51565F584D4A434407
:1024DD00191E171005020B0C21262F283D3A3334F7
:1024ED004E49404752555C5B7671787F6A6D6463E7
:1024FD003E39303722252C2B0601080F1A1D1413D7
:10250D00AEA9A0A7B2B5BCBB9691989F8A8D8483C6
:10251D00DED9D0D7C2C5CCCBE6E1E8EFFAFDF4F3B6
:101D37007F01121CD890007CE0640170237D077F2F
:101D47005A1227DF122DC690007D120E4C7D067F9A
:101D57005A1227DF122DC6900074120E4C021EDE97
:101D670090007CE06003021EB8900046120E5800F7
:101D770000000090007D120E580000000090004AFD
:101D8700120E580000000090004E120E587F7FC9B7
:101D97009EE4900043F07D077F5A1227DF122DC67D
:101DA700900046120E4C90007DE0FCA3E0FDA3E0FE
:101DB700FEA3E0FF900046E0F8A3E0F9A3E0FAA352
:101DC700E0FB12082D90007D120E4C90004AE0FCBB
:101DD700A3E0FDA3E0FEA3E0FF900046E0F8A3E048
:101DE700F9A3E0FAA3E0FB120A2460144012900062
:101DF70046E0FCA3E0FDA3E0FEA3E0FFA3120E4C28
:101E070090004EE0FCA3E0FDA3E0FEA3E0FF9000FE
:101E170046E0F8A3E0F9A3E0FAA3E0FB120A245096
:101E270014900046E0FCA3E0FDA3E0FEA3E0FF90D2
:101E3700004E120E4C900043E004F0E0C39416509D
:101E470003021D9D90007DE0FCA3E0FDA3E0FEA33F
:101E5700E0FF90004AE0F8A3E0F9A3E0FAA3E0FB73
:101E670012082990007D120E4C90007DE0FCA3E043
:101E7700FDA3E0FEA3E0FF90004EE0F8A3E0F9A386
:101E8700E0FAA3E0FB12082990007D120E4C9000A7
:101E97007DE0FCA3E0FDA3E0FEA3E0FF7BCD7ACCD1
:101EA700794C783D12091E90007D120E4C7F0580FB
:101EB7006390007CE0B402239000AAE0FCE4120ADD
:101EC700A77BCD7ACC79CC783D12091E90005312AE
:101ED7000E4C7F5A122D31E4FF803990007CE0646C
:101EE70003703790008CE0FCE4120AA7122C88904C
:101EF7000044EEF0A3EFF0900044E0FCA3E0FDEC1B
:101F0700FF3395E0AB07ED90005CF07D217F5A121F
:101F17002F13E4FF121CB1021D3790007CE064040C
:101F27006003021D37900099E0FCE4120AA7122C07
:101F370088900044EEF0A3EFF0900044E0FCA3E0AB
:101F4700FDECFF3395E0AB07ED90005CF07D207F63
:0C1F57005A122F13E4FF121CB1021D37B8
:10252D0000070E091C1B1215383F363124232A2DA6
:10253D0070777E796C6B6265484F464154535A5D96
:10254D00E0E7EEE9FCFBF2F5D8DFD6D1C4C3CACD86
:10255D0090979E998C8B8285A8AFA6A1B4B3BABD76
:10256D00C7C0C9CEDBDCD5D2FFF8F1F6E3E4EDEA66
:10257D00B7B0B9BEABACA5A28F88818693949D9A56
:10258D002720292E3B3C35321F18111603040D0A46
:10259D005750595E4B4C45426F68616673747D7A36
:1025AD00898E878095929B9CB1B6BFB8ADAAA3A426
:1025BD00F9FEF7F0E5E2EBECC1C6CFC8DDDAD3D416
:1025CD00696E676075727B7C51565F584D4A434406
:1025DD00191E171005020B0C21262F283D3A3334F6
:1025ED004E49404752555C5B7671787F6A6D6463E6
:1025FD003E39303722252C2B0601080F1A1D1413D6
:10260D00AEA9A0A7B2B5BCBB9691989F8A8D8483C5
:10261D00DED9D0D7C2C5CCCBE6E1E8EFFAFDF4F3B5
:102BC0007F01121CD8C390007AE064809484505B2B
:102BD00090007DE0FCA3E0FDA3E0FEA3E0FF122C4B
:102BE00088900068EEF0A3EFF0FD90007AE0FEA37D
:102BF000E0FFED12304090007BE004F070069000A2
:102C00007AE004F0900068E0FF3395E0F0A3EFF085
:102C1000FD90007AE0FEA3E0FFED12304090007BD3
:102C2000E004F0700690007AE004F0E4FF121CB1BA
:022C3000808E94
:102CDD007F01121CD8900079E02401FF900078E06C
:102CED003400FE12305A90006EE4F0A3EFF0E0F8DD
:102CFD00E4F0E890006EF0900078E0FEA3E0FF12A3
:102D0D00305A90006EE0FEA3E04FFF90006EEEF0A3
:102D1D00FEA3EFF0122DC690007D120E4CE4FF12B3
:042D2D001CB180ACA9
:03000B00021ABB1B
:101AB600C2AF80FE32121ABA85D01B75D018AAE0C2
:101AC600C28CE58A2407F58AE58C34EEF58CD28C37
:101AD600EC240EF8E6BC060274FFC39581B414002C
:101AE60040CE7907782216E608700BC2AFE630E1E1
:101AF600034418F6D2AF08D9EDEA8BD0300901229B
:101B0600D51DFCC0E0C0D0C0F0C083C082C000C0FC
:101B160001C002C003C004C005C006C007E51C23FF
:101B26002423F87440C2AF46F6D2AFD209E51CFFB3
:101B3600232423F80F0808BF07047F007823E63024
:101B4600E4F200E51CC39F5020051C740D251CF80B
:101B5600E6FDA68108E6AE1CBE060274FFCDF8E8D7
:101B66006D60E008E6C0E080F6E51CD39F4027E5FF
:101B76001C240EF8E6AE1CBE060274FFFD18E6CD68
:101B8600F8E5816D6006D0E0F61880F5E51C240DB9
:101B9600C8F6151C80D3751D05E51C232423F87F84
:101BA60004C2AFE610E61E30E00310E20C7F003000
:051BB600E10730E3042B
:101BBB007F0854F4547CC6D2AF54804207C209222A
:101BCB00F6D2AFD007D006D005D004D003D002D0C8
:101BDB0001D000D082D083D0F0D0D0D0E0C2092287
:101BEB00780DA68174066006FF0876FFDFFB7F0782
:101BFB00E47822F608F608DFFA78237630903189FC
:101C0B00740193C0E0E493C0E0751D054389017531
:0D1C1B008A00758CEED28CD2AFD2A92206C1
:101C2800EFD3940640037FFF2274232F2FF8E6207A
:101C3800E5F4C2AFE64430F6D2AFAE1CEEC39F5017
:101C4800210E740D2EF8E6F908E618BE060274FF98
:101C5800FDED69600909E71919F7090980F31616F6
:101C680080DAEED39F400405810581EED39F4022A0
:101C7800740D2EF808E6F9EEB51C02A981180606BF
:101C8800E6FDED6960091919E70909F71980F31EDE
:101C980080D9EF240DF8E604F8EF2F0490318993EA
:091CA800F608EF2F93F67F0022ED
:101CB100EFD3940640037FFF22EF232423F8C2AF22
:101CC100E630E50530E002D2E4D2E2C6D2AF7F00D1
:071CD10030E2010F021B05C8
:101CD8008FF0E4FFFEE51C232422F8C2A930F70D9B
:101CE8007F08E6600B2DF660325030800730F10631
:101CF800EDF660277E020830F010C2AFE610E72547
:101D08000E30E20CD2AF7F048014C2AFE610E715A4
:101D180054EC4EF6D2AFD2A9021B317F0808EF442B
:0F1D280083F4C2AF56C6D2AFD2A954804FFF2268
:10082600020B47E86480F8E933E83360110460F0AE
:10083600ED33EC337009E8FCE9FDEAFEEBFF220438
:1008460060DED3EB9FEA9EE99DE8C2E78CF0C2F733
:1008560095F0400CE8CCF8E9CDF9EACEFAEBCFFBFF
:10086600120B1285D0F05804700320D5B3E804703B
:10087600075002B2D5020B5192D5EC0460F7E4CCD6
:10088600C0E0C398F8603B94186008400DD0E0FBC8
:10089600020B29E4FBFAC9FC8028E830E406E4C927
:1008A600FBE4CAFCE830E305E4C9CACBFCE854071C
:1008B6006010F8C3E913F9EA13FAEB13FBEC13FC27
:1008C600D8F130F52FC3E49CFCEF9BFFEE9AFEEDCA
:1008D60099FDD0E0FBEF4E4D4C701222DB03020B6C
:1008E6004EEC2CFCEF33FFEE33FEED33FDED30E73F
:1008F600EB020B29EF2BFFEE3AFEED39FDD0E0FBC4
:1009060050130BBB0003020B51ED13FDEE13FEEF6C
:0809160013FFEC13FC020B2996
:10091E00EC4D6011E8497017ED33EC3304600DE4D3
:10092E00FCFFFEFD22E933E8330470F8020B471298
:10093E000B1258046009E4CC248150062850090299
:10094E000B51284003020B4EC0E0EB4A7044B980B5
:10095E0006D0E0FB020B3DEF4E701CBD8008EBFF96
:10096E00EAFEE9FD80EBE98DF0A4FEE5F0020A0750
:10097E00E9CDF9EAFEEBFFEF89F0A4FCE5F0CE89B4
:10098E00F0A42EFFE435F0CD89F0A42DFEE435F071
:10099E008067EF4E7005BD80D780C3EF8BF0A4AC9F
:1009AE00F0EE8BF0A42CFCE435F0F8EF8AF0A42CDA
:1009BE00E5F038FCE433CB8DF0A42CFCE5F03BF8ED
:1009CE00EE8AF0A42CFCE5F038F8E433CF89F0A4DD
:1009DE002CFCE5F038CF3400CE89F0A42FFFE5F0E3
:1009EE003EFEE433C98DF0A42EFEE5F039CD8AF03B
:1009FE00A42FFFE5F03EFEE43DFD33D0E0FB5007B3
:100A0E000BBB000F020B51EC2CFCEF33FFEE33FE51
:060A1E00ED33FD020B297F
:100A240074F8CC6480CCC86480C8F58204604FC379
:100A3400EB9FF5F0EA9E42F0E99D42F0E89C45F018
:100A4400603C501DE5825FFFE582D313CB5BCBF4A2
:100A54002B5582FB50280ABA002409B900200880CB
:100A64001DE5825BFBE582D313CF5FCFF4C3132F65
:100A74005582FF50090EBE00050DBD00010CC3EBED
:100A84009FF5F0EA9E42F0E99D42F0E89C45F06053
:090A940007CC4820E701B3EC2275
:100A9D0075F020800E75F010800575F0087D007ED4
:100AAD00007F003392D530D503120E3EEC3340104B
:100ABD00EF33FFEE33FEED33FDEC33FCD5F0ED22DD
:0E0ACD00E5F0247EA2D513CC92E7CDCEFF2219
:100ADB00EDD2E7CD33EC3392D524814006E4FFFE13
:100AEB00FDFC22FCE4CFCECDCC24E0501174FF8072
:100AFB00EDC3CC13CCCD13CDCE13CECF13CF04700F
:070B0B00F030D5DE020E3EC2
:100F2600E5082414F582E43400F583E005082290F0
:100F36000011300703900014E475F001120E8902C7
:100F46000DAE2000E97F2ED2008018EF540F2490BA
:100F5600D43440D4FF30040BEF24BFB41A0050033E
:100F66002461FFE50960021509050CE50C70020510
:100F76000B30070E900011E475F001120E89EF0296
:100F86000E16022F3D7403D2078003E4C207F5084C
:100F9600900011120EA0E4F509F50BF50CE50960B9
:100FA600077F20120F6980F5750AFFC201C200C2D1
:100FB60002C203C205C206C208120F35FF700D3009
:100FC60007057F00120F7AAF0CAE0B22B4255FC265
:100FD600D5C204120F35FF24D0B40A00501A75F09A
:100FE6000A780930D50508B6FF0106C6A426F620FC
:100FF600D5047002D20380D924CFB41A00EF50046E
:10100600C2E5D20402126CD20180C6D20080C0D2E0
:101016000280BCD2D580BAD20580B47F20120F6977
:101026002002077401B5090040F1120F26FF120FC6
:1010360069020FA3D208D2068095120F26FB120F63
:1010460026FA120F26F94A4B7006796A7A137BFF45
:1010560020022EE509602A7E008E82758300120D1D
:10106600C760060EEE650A70F0C2D5EBC0E0EAC0B6
:10107600E0E9C0E0EE1212CDD0E0F9D0E0FAD0E01F
:10108600FB120DAEFF60AAEBC0E0EAC0E0E9C0E0EB
:10109600120F69D0E02401F9D0E03400FAD0E0FB69
:1010A600E50A0460DCD50AD98087D20280A2121232
:1010B600AF60F7E50A700104120B5CA90A600DE542
:1010C6000A600914F50A121357EF60F3EA30E702D3
:1010D600F404C3995079EAF4250A0430E701E404DC
:1010E600F50A800D1212AF60C1EA050A250A120B35
:1010F6005CEA900040F030E701E4250A04D50A04D2
:10110600200501141212CDE4C0E0121357900040DE
:10111600E0601320E70714F0120F51802204F0D08C
:10112600E014C0E07F00120F51E50A6007120F4875
:10113600150A800B300503120F48D0E0020FA3D02A
:10114600E00480C41212AF609EE50A04120B5C90A4
:101156000040EAF0E50A20050260010424041212A8
:01116600CDBB
:1011670074FF04C0E0121357120F51E50A2005025D
:101177006003120F48D0E0B50AE87F45120F5B9075
:101187000040E07F2B30E7047F2DF404C0E0120F0E
:1011970069D0E075F00A84C0F0120F52D0E0120F48
:1011A70052020FA3791080027908C206C20880088C
:1011B700D2D5790A8004790AC2D5E50A047002F506
:1011C7000AE4FAFDFEFF120F26FC7B08200113122A
:1011D7000F26FD7B1030000A120F26FE120F26FF86
:1011E7007B20EC3382D592D55013C3E43000069FA1
:1011F700FFE49EFEE42001039DFDE49CFCE4CBF8A4
:10120700C201EC700CCFCECDCCE824F8F870F38097
:1012170017C3EF33FFEE33FEED33FDEC33FCEB3357
:10122700FB994002FB0FD8E9EB300105F8D0E0C489
:1012370048B201C0E00AEC4D4E4F78207B0070C2E7
:10124700EAB50A0040BCC0E01212CFD0F0D0E020CF
:101257000104C4C0E0C4B201C0F0120F52D0F0D5EF
:10126700F0EB020FA3120ED910405311AB58101117
:101277004C100D4211AF4F11B74411B74910264317
:1012870011BD5510EA46114A4510B447138A50104C
:10129700152D10192E103C2B101D23103A201373F7
:1012A7002A0FD54800001034E50AB4FF03750A0673
:1012B700120F26FC120F26FD120F26FE120F26FF15
:1012C700900039020B99790AA2D520031430050939
:1012D700B910020404B9080104A2D520060250017E
:1012E700042002689202B509005034C0E07F203024
:1012F70003197F30A20272067205500F121326C21D
:1013070002C206C205C2087F30800F300503E9C05C
:10131700E0120F69300503D0E0F9D0E0B509CC3011
:1013270005177F30B9100C120F697F583004077FFB
:10133700788003B90803120F693002057F2D020F69
:10134700697F202008F87F2B2006F322920280CFA6
:101357007F00B40700500B2439F582E43400F5838D
:10136700E0FF22286E756C6C2900D201120F26301F
:1013770001F8C201780930D50108F6020FD52D50C2
:10138700434958120F262403B405004001E4901383
:101397008593120F5A743A120F5AD2037509040231
:0213A70011AB88
:100B1200E9D2E7C933E833F892D5EDD2E7CD33EC29
:070B220033FC5002B2D522A2
:100B2900EC30E7100FBF000C0EBE00080DBD00042D
:100B39000BEB6014A2D5EB13FCED92E7FD2274FFD9
:100B4900FCFDFEFF22E480F8A2D574FF13FC7D8032
:030B5900E480EF46
:100B5C00F920E73624F950037907E4F42402FBE585
:100B6C0082158270021583DBF6E024FB501BE960D2
:100B7C0014E4F0E582158270021583E004F0B40AE7
:0D0B8C0008E4F0D9EE7401F00A22C2D5226F
:100B9900ED33EC3392D5FA602AB4FF33EDC2E77B2B
:100BA900FF60067A0B79BEE4227A0B79C720D50457
:100BB9007A0B79C2224E614E002B494E46002D49CF
:100BC9004E4600E47A08F0A3DAFC7B00740722C0E1
:100BD90083C082ECC0E0EDC0E0EEC0E0EFC0E0EA27
:100BE90075F010A4CAABF075F04DA42BFBE435F0F9
:100BF900FCEA2410FAEB34C5FBEC34D9FCEDC2E76E
:100C0900FF75F056A4F42411C5F0F434C58FF0A48F
:100C19002AE5F03BE43CF020E714120D6ED0E0FF2A
:100C2900D0E0FED0E0FDD0E0FC120CA18014F40469
:100C3900120D6ED0E0FFD0E0FED0E0FDD0E0FC1256
:100C4900091ED082D083E0FAEDD2E7CD33EC33240C
:100C590082FBE4C3CF33CFCE33CECD33CD33DBF3F9
:100C69007B0775F00A846004F0A31B0AE5F0F0A382
:100C79008FF0740AA4FFACF08EF0740AA42CFEACB9
:100C8900F050010C8DF0740AA42CFDE435F0F0A3AA
:050C9900DBDE74072200
:100C9E00020B51EC5D046005E859047003020B472A
:100CAE00120B12580460F6EC4860F2EC7004FDFE74
:100CBE00FF22C860DB2481C85009C3986002500629
:100CCE00020B4E9850CAF582E9294B4A7005AB8249
:100CDE00020B3D75F0007C1A7880C3EF9BEE9AED07
:100CEE0099400DC3EF9BFFEE9AFEED99FDE842F0A1
:100CFE00DC23ACF0D0E0FFD0E0FED0E0FDAB8220F4
:100D0E00E7101BEB60BAEC2CFCEF33FFEE33FEED7D
:100D1E0033FD020B29E803F830E705C0F075F0004B
:100D2E00EF2FFFEE33FEED33FD40B830E7C280AA61
:100D3E003F8000004120000042C80000447A0000BD
:100D4E00461C400047C35000497424004B1896803F
:100D5E004CBEBC205A0E1BCA6753C21C749DC5AE36
:100D6E00FB60065407601C2323120D9CEB54386065
:100D7E0009120D88120D9712091EECF8EDF9EEFA14
:100D8E00EFCB22EB120D9780F1543803241C900DFB
:100D9E003EFE93FC0EEE93FD0EEE930ECE93FF22CF
:0300000002319733
:0C319700787FE4F6D8FD75812F021BEB59
:100DAE00BB010689828A83E0225002E722BBFE0243
:090DBE00E32289828A83E4932276
:100DC700BB010CE58229F582E5833AF583E02250E1
:100DD70006E92582F8E622BBFE06E92582F8E2222B
:0D0DE700E58229F582E5833AF583E4932245
:100DF400BB010989828A83F8E028F022500327F78F
:100E040022BBFE05F8E328F3228A838982F8E4935F
:020E1400282292
:100E1600BB010689828A83F0225002F722BBFE01BB
:020E2600F322B5
:100E2800A3F8E0C5F025F0F0E5821582700215837D
:060E3800E0C838F0E822DA
:0E0E3E00C3E49FFFE49EFEE49DFDE49CFC22C5
:0C0E4C00ECF0A3EDF0A3EEF0A3EFF02219
:100E5800A8828583F0D083D082120E6F120E6F1293
:100E68000E6F120E6FE473E493A3C583C5F0C583B8
:100E7800C8C582C8F0A3C583C5F0C583C8C582C8E4
:010E88002247
:100E8900F8E0FBA3A3E0F925F0F0E58215827002F2
:070E99001583E0FA38F02296
:090EA000EBF0A3EAF0A3E9F02253
:100EA900BB010DE58229F582E5833AF583020F0836
:100EB9005007E92582F8020EFFBBFE07E92582F8F3
:100EC900020F11E58229F582E5833AF583020F1AAB
:100ED900D083D082F8E4937012740193700DA3A3A8
:100EE90093F8740193F5828883E4737402936860BC
:060EF900EFA3A3A380DFBC
:102F3D00EFB40A07740D122F48740A309811A8992E
:102F4D00B8130CC2983098FDA899C298B811F630F4
:072F5D0099FDC299F59922CC
:1030FB00E4FFFE120DAE600C0FEF70010E09E970CC
:05310B00F20A80EF2232
:090EFF00E6FB08E6FA08E6F92218
:090F0800E0FBA3E0FAA3E0F922EA
:090F1100E2FB08E2FA08E2F92211
:0C0F1A00E493FB740193FA740293F92233
:00000001FF
